:100000000C94A2030C94D3030C94D3030C94D30349
:100010000C94D3030C94D3030C94D3030C94D30308
:100020000C94D3030C94D3030C94D3030C94D303F8
:100030000C94D3030C94D3030C94D3030C94D303E8
:100040000C94D3030C94D3030C94D3030C94D303D8
:100050000C94D3030C94D3030C94D3030C94333D2E
:100060000C94D3030C94A73D0C947D3D0C94D303C6
:100070000C94D3030C94D3030C94D3030C94D303A8
:100080000C94D3030C94D3030C94D3030C94D30398
:100090000C94D3030C94D3030C94D3030C94D30388
:1000A0000C94D3030C94D3030C94D3030C94D30378
:1000B0000C94D3030C94D3030C94D3030C94D30368
:1000C0000C94D3030C94D3030C94D3030C94D30358
:1000D0000C94D3030C94D3030C94D3030C94D30348
:1000E0000C94D30308060C06A906240728078B07DF
:1000F0008F078B071606221CBA1C3C1D5C1D761D43
:10010000951DCA1D8A1DFA1DD420392162218B211B
:10011000B421B921E3210C2235223A2263228C2218
:10012000B322D8221F281F281625D726A026A526A9
:10013000D7265226D7262B25D72663366636553640
:1001400059365D369D366A366E36743678367C366C
:10015000823686368A369D36903694369836A94150
:10016000C641C641CC41F941DF41F94107634236FE
:10017000B79BD8A71A39685618AEBAAB558C1D3C38
:10018000B7CC5763BD6DEDFD753EF6177231BF00FC
:100190000000803F08000000BE922449123EABAA36
:1001A000AA2ABECDCCCC4C3E00000080BEABAAAA91
:1001B000AA3E00000000BF000000803F00000000D9
:1001C00000084178D3BB4387D1133D190E3CC3BD12
:1001D0004282AD2B3E68EC8276BED98FE1A93E4CBF
:1001E00080EFFFBE01C4FF7F3F00000000000C94C1
:1001F0006A360C9474360C9462320C9416050C9486
:100200009F420C945C420C94D7260C949F430C9410
:100210008B210C94CA1D0C9462040C9463220C94E0
:100220005D360C9482360C9495430C94AC430C943C
:1002300014040C940C060C94AF420C948B420C9456
:100240003A220C9455360C9419430C94FA1D0C94D4
:100250003D040C948F420C94B6430C941F280C94CC
:10026000951D0C94EC080C9416060C943C1D0C94F3
:100270008F070C9435220C9408060C948B430C9435
:10028000E0080C946E360C94F0030C94DF410C944F
:1002900028070C9463360C9431420C94C4420C949D
:1002A00024070C948B070C94DD030C941B450C94D1
:1002B000AA3C0C94C6410C9466420C94BA1C0C9453
:1002C0008C220C943E430C947C360C94A0260C9407
:1002D00016250C94D8220C94F9410C94A1420C944C
:1002E000113D0C9411450C948A360C9420420C94C8
:1002F000A92A0C9477430C949D360C9476420C9466
:100300005D3C0C94D5030C9435430C94B3220C94AF
:10031000B9210C948A1D0C9406430C946D430C94E3
:10032000A5260C940C220C9490360C945C300C9402
:100330005C430C9448420C9480420C9492420C947E
:1003400081430C94EC030C9478360C94A9060C941D
:1003500062210C94B83C0C942C4B0C9407430C94E5
:1003600086360C94E8030C944B420C94D4200C94E5
:1003700058040C9494360C94BC420C94A9410C94EF
:10038000C0430C942B430C94761D0C94B9420C94EE
:10039000873C0C9472040C9459360C94963C0C9443
:1003A000F6030C94CC410C94B4210C942B250C94A2
:1003B000C2420C94221C0C9447420C940E430C94A1
:1003C000FF410C9498360C9406050C94C43C0C9494
:1003D0005C1D0C9495420C9452260C945A430C9438
:1003E000E4420C94E3210C9439210C9466360040CD
:1003F0007A10F35A00A0724E18090010A5D4E80034
:1004000000E87648170000E40B54020000CA9A3B4B
:10041000000000E1F50500008096980000004042D1
:100420000F000000A086010000001027000000005F
:10043000E803000000006400000000000A00000063
:1004400000000100000000002C76D888DC674F080F
:1004500023DFC1DFAE59E1B1B796E5E3E453C63A15
:10046000E651997696E8E6C28426EB898C9B62ED8C
:10047000407C6FFCEFBC9C9F40F2BAA56FA5F49046
:10048000055A2AF75C936B6CF9676DC11BFCE0E4BD
:100490000D47FEF520E6B500D0ED902E0300943513
:1004A00077050080841E080000204E0A000000C866
:1004B0000C333333330F986E12831141EF8D2114B7
:1004C000893BE65516CFFEE6DB18D1844B381BF787
:1004D0007C1D901DA4BBE424203284725E22810026
:1004E000C9F124ECA1E53D27496E6469766964751C
:1004F000616C206669656C64732063616E6E6F74F5
:100500002062652072657475726E6564004E6F209E
:100510006461746100456E64206F6620646F63756A
:100520006D656E7400496E76616C696420617267F6
:10053000756D656E74004F7574206F66206D656D06
:100540006F727900492F4F204572726F7200556E9D
:100550007465726D696E61746564206F626A65634B
:1005600074206F7220617272617900496E76616CDD
:1005700069642076616C7565004669656C64206EFF
:10058000616D6520746F6F206C6F6E672E204669F9
:10059000656C64206E616D65732063616E6E6F744F
:1005A0002062652073747265616D65642E00556EFE
:1005B0006B6E6F776E2073746174650000000A0BB8
:1005C00002090C0D0E0807030401000000000000E2
:1005D000000000000000000000000000000000001B
:1005E00000000000000000001211100000000000D8
:1005F00000000000000000000000000000000000FB
:10060000000000002200250028002B002E003100F1
:10061000340002010000050108010B010000210067
:10062000240027002A002D003000330001010000C3
:10063000040107010A010505050507050808080862
:10064000020202020A0A080804040404010101016A
:100650000101010103030303030303030407070765
:100660000C0C0C0C0C0C0C0C02020202060606060A
:10067000060606060B0B0B0B0B0B0B0B01021020D7
:1006800020080810204010204080020102010804C8
:10069000020101020408102040808040201008045C
:1006A00002018004020180402010080402010804B5
:1006B00002010102040810204080010204081020F9
:1006C00040807C3C3E5E2B3D3F2F5B5D3B2C2A22D5
:1006D0005C00556E65787065637465642076616C46
:1006E000756500556E65787065637465642066692C
:1006F000656C6400556E7465726D696E61746564D5
:1007000020617272617900556E7465726D696E61F7
:10071000746564206F626A656374004669656C6421
:1007200020686173206E6F2076616C756500556E70
:100730007465726D696E6174656420737472696E3C
:1007400067002C4B11241FBECFEFD1E2DEBFCDBF1F
:1007500000E00CBF18E0A0E0B2E0E2E2F9EA00E05D
:100760000BBF02C007900D92AE37B107D9F72BE04F
:10077000AEE7B8E001C01D92AD39B207E1F713E072
:10078000C2EAD3E000E006C021970109802FFE01F4
:100790000E94144EC13AD10780E00807A9F70E94D1
:1007A0007C490C948F540C940000FC018681978145
:1007B00022813381821B930B0895FC0122813381B6
:1007C000232B19F084819581089580E090E00895AD
:1007D000FC01868197810895FC01828193810895AF
:1007E000FC01228133813783268308950F931F9361
:1007F000CF93DF93EC018B01E881F9810484F585C7
:10080000E02D19958017910740F02E813F81201B24
:10081000310B3F832E83C90102C080E090E0DF915D
:10082000CF911F910F9108950F931F93CF93DF9353
:10083000FC0122813381232B19F480E090E018C061
:100840008B01EC010190F081E02D0484F585E02D11
:100850001995800F911F2C813D812817390768F366
:100860002E813F81B901600F711F7F836E83C901A3
:10087000DF91CF911F910F910895DC011296ED91B8
:10088000FC911397309789F02081222361F09F011A
:100890002F5F3F4F13963C932E9312972081822F08
:1008A00090E0211104C08FEF01C08EEF9FEF0895FB
:1008B000DC01ED91FC91369720813181820F931FED
:1008C0000C943D04FC018785828317821086118673
:1008D0001286138614861586168613821482158254
:1008E000168208954F925F926F927F928F929F929D
:1008F000AF92BF92CF92DF92EF92FF920F931F932E
:10090000CF93DF93DC0112968D909C901397811406
:10091000910431F4F901118210828EEFD80132C0B6
:1009200028018901EA013C01C40101970E94815418
:10093000FC01892B51F5F40101900020E9F7319772
:10094000E819F9099F0140E050E060E070E080E0C4
:1009500090E0A880B980CA80DB80EC80FD800E81A9
:100960001F810E94804E288339834A835B836C8376
:100970007D838E839F838E0E9F1EF30193828282DE
:100980008FEFD2018C9380E030C08081082E000C64
:10099000990BD8018D939C93AF01481959094F5F6A
:1009A0005F4F952F990F990B9A01492F592F692F56
:1009B000792F892FA880B980CA80DB80EC80FD80E8
:1009C0000E811F810E94804E288339834A835B8376
:1009D0006C837D838E839F833196D3011396FC9322
:1009E000EE931297F201108281E0DF91CF911F9177
:1009F0000F91FF90EF90DF90CF90BF90AF909F90BE
:100A00008F907F906F905F904F9008950F931F93FA
:100A1000DC01ED91FC9138970190F081E02D8E0F73
:100A20009F1F0E9472041F910F910895AF92BF9271
:100A3000CF92DF92EF92FF920F931F93CF93DF93AA
:100A40006C015B01EA017901D8011C92FC01638110
:100A50007481858196816038710581059105B8F1B1
:100A6000D601ED91FC910190F081E02DC601199520
:100A7000FC01D7018D939C9397FD25C02881398176
:100A80004A815B816C817D818E819F81A1E00E9482
:100A9000894E288339834A835B836C837D838E836D
:100AA0009F836E2FEE0F770BC5010E946054009755
:100AB000B9F2FC018081082E000C990BD7018D93AF
:100AC0009C9381E015C0D8018C9380E011C0F9019E
:100AD00071836083C5010E946054009709F2DC01B4
:100AE0008C91082E000C990BF70191838083E9CF3C
:100AF000DF91CF911F910F91FF90EF90DF90CF90FA
:100B0000BF90AF900895FC0120812D3F19F0128A0B
:100B100081E0089580E00895EF92FF920F931F9374
:100B2000CF93DF937C018A01DC0152966C9352973C
:100B3000FA0101900020E9F73197EF01C41BD50BB2
:100B400053968D919C915497DC01ED91FC9100841A
:100B5000F185E02D1995F701A389B489ED91FC91F8
:100B60001197C817D90748F40680F781E02DCD0109
:100B70001995AE014F5F5F4F13C00084F185E02DE2
:100B8000CD011995EC01D70153968D919C91549705
:100B9000DC01ED91FC910680F781E02D1995AE0105
:100BA000B801DF91CF911F910F91FF90EF900C94BE
:100BB000944B4F925F926F927F928F929F92AF92DF
:100BC000BF92CF92DF92EF92FF920F931F93CF933A
:100BD000DF93CDB7DEB729970FB6F894DEBF0FBE0F
:100BE000CDBF8C017B012A01922ED801EC918E2F72
:100BF000EE0F990BAA0BBB0BFC013296E930F10505
:100C000008F0D0C18827EE58FF4F8F4F0C94144E38
:100C100045E155E06AE0C9C1C8010E94C524D82E4B
:100C20008111E3CF4DE055E06BE0B8C1C8010E94EF
:100C3000033E882309F470C0F80181818230E9F015
:100C40002CF4882371F08130C1F166C0833011F13A
:100C5000843061F161C0D80111968C91873009F41C
:100C6000BBC1C8010E94C524882309F4B5C1F3CFD4
:100C7000F8018181873009F4B6C1C8010E94C524FA
:100C8000882309F4B0C1F4CFD80111968C91873034
:100C900009F4B8C1C8010E94C524882309F4B2C16F
:100CA000F3CFF8018181873009F4BFC1C8010E94E8
:100CB000C524882309F4B9C1F4CFC8010E945B3E62
:100CC000FC0101900020E9F731976F01C81AD90A99
:100CD000D701ED91FC910190F081E02DB601C701A3
:100CE00019955C01892B21F446E355E068E05DC16C
:100CF000C8010E945B3EA601BC01C5010E94575479
:100D0000C8010E94C524882309F4BAC1F801808172
:100D1000873009F096C1B4C1FF24FA94992009F4F0
:100D200074C0D80153968D919C9154970E94234989
:100D3000D82E811104C0F8016389748977C0C80175
:100D40000E94662A882309F433C181E0D8018C937C
:100D500034C1C8010E94033E882309F452C0F8013F
:100D600081818230A1F02CF4882379F0813039F12F
:100D700048C08330B1F0843009F043C0C8010E94FC
:100D8000723E8A8324E0F22E3EC0F12C3CC0C801A2
:100D90000E941C3E6A837B838C839D8342E0F42EF9
:100DA00032C0C8010E94373E2A833B834C835D8357
:100DB0006E837F838887998733E0F32E24C0C80130
:100DC0000E945B3E6C01009709F48ECFFC010190FC
:100DD0000020E9F7BF01681B790BD701ED91FC9169
:100DE0000190F081E02DC70119957C01009709F46D
:100DF0007BCFB6010E946B54FB82EA82FF24F394FE
:100E000002C0FF24FA94911004C0C8010E94C524B6
:100E1000D4C0F801838994890E942349D82E811176
:100E200009C0D80153966D917C915497C8010E94D6
:100E3000EC22AEC1C8010E94662A882309F4B8C01A
:100E400081E0F8018083B9C048EE54E06CE0ADC0A9
:100E50001B821A82C8010E94C524882309F4A8C0F5
:100E600088248A94D8018C91833009F449C0D70131
:100E7000ED91FC910190F081E02D69E070E0C701F7
:100E800019955C01FC01808220E0AC01B701C8012A
:100E90000E94D905882309F427CFCA80DB80C114BA
:100EA000D104C9F0D60112968D919C9113970097A9
:100EB00011F06C01F7CFD701ED91FC910190F08119
:100EC000E02D64E070E0C7011995F60193838283F9
:100ED000009781F409CFD701ED91FC910190F08149
:100EE000E02D64E070E0C7011995009709F4FCCE8D
:100EF0009B838A83FC01B182A08213821282B2CFCB
:100F0000C801911003C00E94C52402C00E94662A35
:100F1000811150C04DC04DE055E06BE046C01B82D2
:100F20001A82C8010E94C524882309F441C088247C
:100F30008A94C8010E94332881110EC1D8018C9176
:100F4000853009F415C1C8010E945B3EFC01019087
:100F50000020E9F7BF01681B790BD701ED91FC91E7
:100F60000190F081E02DC70119953C01892B09F40E
:100F7000BBCEC8010E945B3EBC01C3010E946B5402
:100F8000C8010E94C524811199C0C8010E9433285C
:100F9000D82E81110DC04BE157E065E0C8010E94D9
:100FA0008C05F6C04EEA55E067E0C8010E948C054A
:100FB000D12CEEC095E0F92E03C0BFEFFB16C1F3B4
:100FC000F98289E0FE013196D20101900D928A9555
:100FD000E1F7DD24D394DCC0C8010E9433288111DD
:100FE000E7CFF12C9BCEC8010E9433288111E0CFBE
:100FF000C8010E941C3E6A837B838C839D8372E0C0
:10100000F72E8CCEC8010E9433288111D1CFC801A0
:101010000E94373E2A833B834C835D836E837F83AC
:101020008887998763E0F62E79CEC8010E9433281D
:101030008111BECFC8010E94723E8A8354E0F52E12
:101040006DCEC8010E945B3EFC0101900020E9F7D3
:1010500031976F01C81AD90AD701ED91FC9101901F
:10106000F081E02DB601C70119953C01892B09F4E7
:101070003BCEC8010E945B3EA601BC01C3013ECE2F
:10108000C8010E943328811193CFD8018C918730F9
:1010900009F08ECFD701ED91FC910190F081E02D08
:1010A00061E070E0C7011995009709F41DCEFC01BD
:1010B0001082BB82AA82FF24F39430CED701ED9137
:1010C000FC910190F081E02D69E070E0C701199575
:1010D0006C01009709F408CEFC01808220E0AC018D
:1010E000B701C8010E94D905882309F4FDCDAA8063
:1010F000BB80A114B104C9F0D50114968D919C91C7
:101100001597009711F05C01F7CFD701ED91FC9195
:101110000190F081E02D66E070E0C7011995F501BE
:1011200095838483009781F4DFCDD701ED91FC9105
:101130000190F081E02D66E070E0C70119950097FD
:1011400009F4D2CD9B838A83FC0171826082D382B1
:10115000C28215821482EDCE91100CC0D8018C9100
:10116000853099F4C8010E94C52481110EC008C0C1
:101170009920C1F3C8010E94662A811106C018CFC8
:10118000F80180818E3F09F013CF86E0F82E18CF4A
:101190008D2D29960FB6F894DEBF0FBECDBFDF911F
:1011A000CF911F910F91FF90EF90DF90CF90BF9064
:1011B000AF909F908F907F906F905F904F90089529
:1011C00022E232E0FC013183208382819381009707
:1011D00011F00C94BC530895CF93DF93EC010E945F
:1011E000E008CE01DF91CF910C94BC53CF93DF93F5
:1011F000FC01EB018081188219821A821B82282F40
:10120000082E000C330BA901487F5527403F51059C
:1012100009F043C040E050E0BA01877024E0829FAB
:10122000A0011124488359836A837B8381818823A9
:1012300009F449C0082E000C990B982F8827929525
:10124000907F092E000CAA0BBB0B482B592B6A2B45
:101250007B2B488359836A837B838281882399F11E
:101260008F7320E4829FC0011124092E000CAA0B69
:10127000BB0B482B592B6A2B7B2B488359836A83E2
:101280007B8383818823F9F08F73482B48835983AC
:101290006A837B83CF0103965DC0A901407F5527F8
:1012A000403E510571F5322F22273295307FC9011A
:1012B000032E000CAA0BBB0B88839983AA83BB83E4
:1012C0008181811103C080E090E044C08F7340E4CD
:1012D000849FC0011124822B932B092E000CAA0B92
:1012E000BB0B88839983AA83BB832281222359F372
:1012F0002F73822B88839983AA83BB83CF010396A4
:1013000029C0207E3327203C3105C9F48F7120E4A9
:10131000829FC0011124092E000CAA0BBB0B8883ED
:101320009983AA83BB832181222369F22F73822BA5
:1013300088839983AA83BB83CF0102960BC0082EB2
:10134000000C990BAA0BBB0B88839983AA83BB83E0
:10135000CF010196DF91CF91089590ED980F9A30CB
:1013600058F09FEB980F963038F09FE9980F81E086
:10137000963018F080E0089581E0089590ED980F80
:101380009A3040F09FEB980F963010F487530895F1
:1013900087550895892F0895CF92DF92EF92FF929B
:1013A0000F931F93CF93DF93EC01E881F9810190B4
:1013B000F081E02D19958C0197FF06C08A831B826E
:1013C0001C821D821E8247C06C01990FEE08FF0827
:1013D000CB82DC82ED82FE821A822F81388549859C
:1013E0005A856B857C858D859E85A1E00E94894EFE
:1013F0002F83388749875A876B877C878D879E879D
:10140000003811050CF4C9C0E881F981C801887F52
:101410009927803F9105E1F5C80187709927092E2A
:10142000000CAA0BBB0B62E1880F991FAA1FBB1F00
:101430006A95D1F78B839C83AD83BE830190F08145
:10144000E02DCE0119959C012E5F3F4F22303105D2
:1014500020F48DEF8A8380E0A1C08D3F2FEF9207AB
:10146000C1F3982F88279295907F092E000CAA0B24
:10147000BB0B4B815C816D817E81842B952BA62BD0
:10148000B72B8B839C83AD83BE83E881F98113C026
:10149000C801807F9927803E9105B9F54CE0CC0CBE
:1014A000DD1CEE1CFF1C4A95D1F7EE24FF24CB82F5
:1014B000DC82ED82FE820190F081E02DCE01199553
:1014C0009C012E5F3F4F2230310518F28D3F2FEFE8
:1014D000920709F4BECF8F73992736E0880F991FC2
:1014E0003A95E1F7092E000CAA0BBB0B4B815C81EE
:1014F0006D817E81842B952BA62BB72B8B839C83B0
:10150000AD83BE83E881F98112C0C8018F7199272C
:10151000092E000CAA0BBB0B26E0880F991FAA1FEF
:10152000BB1F2A95D1F78B839C83AD83BE8301902B
:10153000F081E02DCE0119959C012E5F3F4F2230A6
:10154000310508F486CF8D3F2FEF920709F481CF44
:101550008F739927092E000CAA0BBB0B4B815C8162
:101560006D817E81842B952BA62BB72B8B839C833F
:10157000AD83BE832F81388549855A856B857C85EF
:101580008D859E85A1E00E94894E2F8338874987EB
:101590005A876B877C878D879E8781E0DF91CF910B
:1015A0001F910F91FF90EF90DF90CF9008952F92B1
:1015B0003F924F925F926F927F928F929F92AF92E3
:1015C000BF92CF92DF92EF92FF920F931F93CF9330
:1015D000DF93CDB7DEB72E970FB6F894DEBF0FBE00
:1015E000CDBF8C015B016A01D6016D907C90F80142
:1015F000808161147104A9F4843041F0982F9B7F9D
:10160000923021F08F5F823008F02AC1D6011896FF
:101610004D915C911997B501C8010E94D905F82E2A
:10162000D9C2823069F0843009F496C08F3F09F046
:1016300017C1C8010E94C52420E08111D5CF10C177
:10164000F60184819581892B09F40AC1812C912CA2
:101650006CE0562EC8010E943328811177C0D80152
:101660008C91833009F472C0F60120813181E12C24
:10167000F12CE216F30609F459C0D6011496ED9147
:10168000FC911597C701880F991FE80FF91F8081FA
:1016900091818816990629F4BFEFEB16FB0629F411
:1016A00045C0EFEFEE1AFE0AE4CFD6011A968D91EF
:1016B0009C911B97892BF9F0C8010E94C5248823AF
:1016C00009F4CEC0F8018081833009F43FC05E9CEC
:1016D000C0015F9C900D1124D6011A964D915C912A
:1016E0001B97480F591F21E0B501C8010E94D70A76
:1016F000811111C0B5C045E255E069E0C8010E9402
:101700008C05C8010E94853EF82E8111A9C08DEF7D
:10171000F80180835FC2F1E06F1A710809F09ACF77
:10172000C8010E94853E811111C09AC0C8010E9463
:10173000B129882309F494C0C8010E94662A88232D
:1017400009F48EC08FEF881A980A84CFD8018C9143
:10175000833009F085C075C0F60182819381892BA1
:1017600009F47EC0D80155962D903D904D905C9027
:101770005897C8010E943328F82E882331F0F801C9
:101780008081853009F06CC05CC0D8018C918530B7
:1017900009F068C055968D919D910D90BC91A02D3A
:1017A00082159305A405B50508F05CC0D8015396D1
:1017B000ED91FC91549783819481A581B6818297A4
:1017C000A105B10509F44EC0DACFD80153966D9149
:1017D0007C915497FB0182818F3F0CF4F7C04EE25D
:1017E00057E063E0C8010E948C05EDEFD801EC934F
:1017F000EE24EA94FE2CD6016D917C91660F771F42
:10180000D501ED91FC910280F381E02DC501199580
:10181000F60117821682FFEFEF16FF0609F4A9CF33
:10182000D6011A968D919C911B97892BA1F4F1E01A
:101830006F1A710809F09DCFD8018C91853009F09D
:10184000EFC0C8010E94662AC8010E94332891E0B7
:10185000F82EF926BFC1C8010E94C5248111BCC061
:10186000F12CB8C1F60186819781892BC9F4F60164
:1018700060817181660F771FD501ED91FC91019018
:10188000F081E02DC5011995F60197838683892B98
:1018900039F446E355E068E0C8010E948C059AC11E
:1018A000D6014D915C911197440F551F12966D9181
:1018B0007C91139716968D919C9117970E9457547F
:1018C000F6010190F081E02DFA87E987D60116969E
:1018D000BC91BD87F601F781FE87D80153968D91A3
:1018E0009C915497FC0143815481658176814232F9
:1018F00051056105710521F042ED56E066E05EC0DC
:101900000E94CC09882309F460CF89859A859C8739
:101910008B87D80153968D909C905497EB85FC85CE
:10192000EF2B79F0C4010E94FD46882351F0F401A9
:1019300083819481A581B6818297A105B10509F0C3
:101940000AC1F40183819481A581B6818297A105A2
:10195000B10509F0AEC0ED85FE85E12CF12C89853D
:101960009A858E159F0509F46AC0A191B1911097CF
:1019700009F461C08C9181115EC0C4010E94CC0940
:10198000D80153966D917C9154978823D9F0CB015F
:101990000E942349D80153966D917C9154978823D6
:1019A000A9F0FB0183819481A581B681CA97A10525
:1019B000B10509F448C04BE157E065E0C8010E9459
:1019C0008C0516CFFB0182818F3F0CF7C8010E9466
:1019D000EC22E12CF12C0FCF2CE02E9DC0012F9D8D
:1019E000900D1124F60142855385480F591F21E0BF
:1019F000B501C8010E94D70A882309F431CFD80164
:101A00008C91853009F013CF55962D903D904D90D7
:101A10005C905897C8010E94662AF801108207CF8F
:101A2000C8010E94830560E070E0C8010E94F828A8
:101A30008111A5CE15CF9FEFE91AF90A90CFEE24B8
:101A4000EA94FE2C9ACFCB010E94CC09D801539680
:101A50006D917C915497811109C0FB0182818F3F68
:101A60000CF4B4CF4BE157E065E0BCCECB010E9453
:101A70002349882309F45AC081E0F80180839FEF4D
:101A8000E916F90609F0B7CEC8010E94B1298823EA
:101A900009F4AECEC8010E94E336882309F4A8CE2B
:101AA000D8018C91853009F4A3CE81E0F8018083C0
:101AB0009FCEC4010E944449D80153966D917C91F8
:101AC0005497811109C0FB0182818F3F0CF47ECFB6
:101AD0004EE257E063E072CFCB010E942349D80168
:101AE00053966D917C915497882309F46FCFFB0135
:101AF00083819481A581B681CA97A105B10509F0BA
:101B000077CECB010E94CC09D80153966D917C9180
:101B10005497811106C0FB0182818F3F0CF456CF90
:101B20004ACFCB010E942349811106C0D8015396A8
:101B30006D917C9154974ACFC8010E94B1298823A6
:101B400009F456CEC8010E94E336882309F450CE2A
:101B5000F8018081A7CF40E0BE016B5F7F4FC401D9
:101B60000E94AA47882309F430CEED84FE84812C9C
:101B7000912C89859A858815990509F4CACED701D3
:101B80008D919C910097F9F0BE016F5F7F4F0E948D
:101B9000F6089C018D819E81AF81B88549815A816B
:101BA0006B817C8184179507A607B70749F0F70179
:101BB000118210828B859C8501979C878B8703C03F
:101BC000D7012D933C93BFEF8B1A9B0AE2E0EE0EF8
:101BD000F11CCFCF8F2D2E960FB6F894DEBF0FBE1F
:101BE000CDBFDF91CF911F910F91FF90EF90DF90CC
:101BF000CF90BF90AF909F908F907F906F905F90AD
:101C00004F903F902F9008950F931F93CF93DF93A2
:101C1000EC0118828B899C890E94CC096B897C8994
:101C2000882389F0FB0183819481A581B6818C0191
:101C30009D010F7D0D3511052105310521F08C9792
:101C4000A105B10539F7FB0182818F3F3CF48DEF8F
:101C50008883CE010E94EC2280E001C081E0DF9108
:101C6000CF911F910F9108952F923F924F925F92C3
:101C70006F927F928F929F92AF92BF92CF92DF929C
:101C8000EF92FF920F931F93CF93DF93CDB7DEB701
:101C9000C957D2400FB6F894DEBF0FBECDBF30EBB0
:101CA000E32E33E0F32ECE5DDE4FF982E882C2529E
:101CB000D1401BEFCF5CDE4F1883C153D14085E08C
:101CC00091E08C0F9D1F4D960E9462048091CE037F
:101CD0009091CF03CE5CDE4F99838883C253D1406D
:101CE000FC0136970190F081E02D42E3842E992487
:101CF00093948C0E9D1EE80DF91D8091D003909158
:101D0000D10391838083CC5CDE4F19821882C45347
:101D1000D14066EC73E0CE018B5F9E4F0E94F03D98
:101D20008AED93E0CB5FDE4F99838883C550D14025
:101D300080E094E0CE5DDE4F99838883C252D1402B
:101D400080E294E0CE5CDE4F99838883C253D14019
:101D5000CB5ADE4FF982E882C555D140CC59DE4FCF
:101D60001883C456D14006E311E00C0F1D1F015E1D
:101D70001F4FC8010E9462046CE273E0CE018A5CCE
:101D80009E4F0E94F03D88E393E0CA5CDE4F99834A
:101D90008883C653D14080E693E0CB5ADE4F9983C7
:101DA0008883C555D14085E894E00E944B450E9448
:101DB0004D451E0127E7221A2EEF320AC1010E946B
:101DC000FD33CD5ADE4F39822882C355D140CE0132
:101DD0008A5C9E4F0E9419430E94B2364B015C01FF
:101DE000C12CD12C7601C859DD4F6883C856D2402A
:101DF000C759DD4F9882C956D240C659DD4FA882D7
:101E0000CA56D240C559DD4FB882CB56D240C459CC
:101E1000DD4FC882CC56D240C359DD4FD882CD5653
:101E2000D240C259DD4FE882CE56D240C159DD4F73
:101E3000F882CF56D24088E193E09A8389839E014D
:101E40002D5F3E4FCE59DD4F39832883C256D24095
:101E5000AE014D5F5F4FCC59DD4F59834883C45667
:101E6000D240CD5FDE4F59834883C350D140BE017D
:101E700066507E4FFF24FA94DB01FC9245515E4F81
:101E8000FA01F0822D523F4FD901FC92CE018A5FB8
:101E90009D4FE6E0EE2EEAE0F2E0DC0101900D92CB
:101EA000EA94E1F7FE01EB59FE4F1382128215828C
:101EB00014821182108271876087138612861782BE
:101EC000168217861686118A108A15861486558BF7
:101ED000448B178A168A138A128A138E128E158ED5
:101EE000148E118E108E31A320A313A212A2178E6E
:101EF000168EC154DE4F99838883CF5BD140CF5378
:101F0000DE4F19821882C15CD14083E090E0C35457
:101F1000DE4F99838883CD5BD140CB53DE4F19824E
:101F20001882C55CD140C953DE4FF983E883C75C92
:101F3000D140CD53DE4F19821882C35CD1404E018F
:101F4000BCE58B1ABEEF9B0AF401F082F182128A83
:101F5000148B038B158A168A178A108E412C512CEC
:101F6000612C712CE15AF140CA59DD4FF983E883A5
:101F7000C656D24020E030E040E061E875E0C401A0
:101F80000E94013F8823A1F0C4010E94C524882338
:101F900079F0C4010E9433288111ECCFCC55DE4F7B
:101FA0008881C45AD140833011F00C94801AE2CF5A
:101FB000C4010E9433288823A1F086EF94E00E9498
:101FC0004B45D40152968C91082E000C990B0E941F
:101FD00045458FEF94E00E944B45C4010E945B3E53
:101FE00012C083E095E00E944B45C2010E94454526
:101FF0008FE095E00E944B45B30180E090E00E94A5
:102000004E2380E295E00E944B450E944D450E9480
:10201000B2364B015C019B01A50160E070E080E0FD
:1020200090E0C859DD4FA880C856D240C759DD4F4F
:10203000B880C956D240C659DD4FC880CA56D24072
:10204000C559DD4FD880CB56D240E12CF12C00E0B1
:1020500010E00E94954E0E94205020E030E04AE7B8
:1020600054E40E942F4F4B015C01CE0187579E4FD5
:102070000E94D323882329F0CE0187579E4F0E94C8
:10208000C12383E395E00E944B45C45ADE4F28816B
:10209000CC55D140C35ADE4F3881CD55D140C25ABC
:1020A000DE4F4881CE55D140C15ADE4F5881CF55C1
:1020B000D140C05ADE4F6881C056D140CF59DE4F63
:1020C0007881C156D140CE59DE4F8881C256D14069
:1020D000CD59DE4F9881C356D1400E9420506B01EC
:1020E0007C0120E030E04AE754E4C501B4010E94DD
:1020F0002F4F9B01AC01C701B6010E942F4F0E94D8
:102100005E450E944D450E944D458BE395E00E943F
:102110004B450E944D45CE0101960E94FD33BE0104
:102120006F5F7F4FC1010E940B23CD5ADE4F398272
:102130002882C355D140CE018A5C9E4F0E9419432C
:102140000E94B2364B015C01C12CD12C7601C859DA
:10215000DD4F6883C856D240C759DD4F9882C956B3
:10216000D240C659DD4FA882CA56D240C559DD4F6C
:10217000B882CB56D240C459DD4FC882CC56D2402B
:10218000C359DD4FD882CD56D240C259DD4FE882C7
:10219000CE56D240C159DD4FF882CF56D2408FEF94
:1021A00089838A831B8A86E391E08C0F9D1F4F965B
:1021B0009D8B8C8B1E8A1F8A188E198E00E010E072
:1021C00020E030E040E061E875E0CE0101960E9439
:1021D000013F882391F0CE0101960E94C5248823F7
:1021E00061F0CE0101960E9433288111E9CF8981E7
:1021F000833011F00C940A1BE3CFCE0101960E94AC
:1022000033288823A9F086EF94E00E944B458B8900
:10221000082E000C990B0E9445458FEF94E00E9418
:102220004B45CE0101960E945B3E0E944B450DC07E
:1022300088E795E00E944B45C8010E94454580E82B
:1022400095E00E944B450E944D450E94B2362B01FD
:102250003C01CE0187579E4F0E94D323882329F04B
:10226000CE0187579E4F0E94C12383E395E00E94D1
:102270004B45C45ADE4F2881CC55D140C35ADE4F5E
:102280003881CD55D140C25ADE4F4881CE55D1401C
:10229000C15ADE4F5881CF55D140C05ADE4F6881B8
:1022A000C056D140CF59DE4F7881C156D140CE596A
:1022B000DE4F8881C256D140CD59DE4F9881C3563A
:1022C000D1400E942050C059DD4F688379838A83B2
:1022D0009B83C057D2409201A30160E070E080E090
:1022E00090E0C859DD4FA880C856D240C759DD4F8D
:1022F000B880C956D240C659DD4FC880CA56D240B0
:10230000C559DD4FD880CB56D240E12CF12C00E0EE
:1023100010E00E94954E0E94205020E030E04AE7F5
:1023200054E40E942F4F20E030E04AE754E40E943A
:102330002F4F9B01AC01C059DD4F688179818A81A3
:102340009B81C057D2400E942F4F0E945E450E9441
:102350004D450E944D458AE895E00E944B450E94FC
:102360004D45CE0101960E94FD33BE016F5F7F4F48
:10237000C1010E940B23CD5ADE4F39822882C355FA
:10238000D140CE018A5C9E4F0E9419430E94B23612
:102390004B015C01C12CD12C7601C859DD4F6883FB
:1023A000C856D240C759DD4F9882C956D240C65947
:1023B000DD4FA882CA56D240C559DD4FB882CB56F0
:1023C000D240C459DD4FC882CC56D240C359DD4FEC
:1023D000D882CD56D240C259DD4FE882CE56D24087
:1023E000C159DD4FF882CF56D2408FEF89838A835F
:1023F0001B8A86E391E08C0F9D1F4F969D8B8C8BE3
:102400001E8A1F8A188E198EE12CF12CC12CD12C1A
:10241000A12CB12C20E030E040E063EB75E0CE0170
:1024200001960E94013F8823A1F08981863029F41A
:10243000CE0101960E94C524F8CF9701A801B601EC
:10244000C501A1E00E94894E79018A016B015C01FE
:10245000E1CF86EB95E00E944B45B701C8010E9491
:102460004E238DEB95E00E944B450E944D450E9406
:10247000B2362B013C01CE0187579E4F0E94D323D9
:10248000882329F0CE0187579E4F0E94C12383E302
:1024900095E00E944B45C45ADE4F2881CC55D1406F
:1024A000C35ADE4F3881CD55D140C25ADE4F4881E4
:1024B000CE55D140C15ADE4F5881CF55D140C05A78
:1024C000DE4F6881C056D140CF59DE4F7881C1566A
:1024D000D140CE59DE4F8881C256D140CD59DE4F12
:1024E0009881C356D1400E942050C059DD4F688367
:1024F00079838A839B83C057D2409201A30160E015
:1025000070E080E090E0C859DD4FA880C856D24006
:10251000C759DD4FB880C956D240C659DD4FC88073
:10252000CA56D240C559DD4FD880CB56D240E12C97
:10253000F12C00E010E00E94954E0E94205020E017
:1025400030E04AE754E40E942F4F20E030E04AE7B1
:1025500054E40E942F4F9B01AC01C059DD4F6881AC
:1025600079818A819B81C057D2400E942F4F0E945F
:102570005E450E944D450E944D4588EC95E00E94C5
:102580004B4587E090E00E94454589E096E00E9437
:102590004B4580E090E00E94454585E196E00E9431
:1025A0004B450E944D45CE0101960E94FD33BE0170
:1025B0006F5F7F4FC1010E940B23CD5ADE4F3982DE
:1025C0002882C355D140CE018A5C9E4F0E94194398
:1025D0000E94B2364B015C01C12CD12C7601C85946
:1025E000DD4F6883C856D240C759DD4F9882C9561F
:1025F000D240C659DD4FA882CA56D240C559DD4FD8
:10260000B882CB56D240C459DD4FC882CC56D24096
:10261000C359DD4FD882CD56D240C259DD4FE88232
:10262000CE56D240C159DD4FF882CF56D2408FEFFF
:1026300089838A831B8A86E391E08C0F9D1F4F96C6
:102640009D8B8C8B1E8A1F8A188E198E20E030E09D
:1026500041E06CE176E0845591400E94013F88237F
:1026600009F45AC067E070E0CE0101960E949E3ED8
:10267000882309F451C0CC55DE4F188219821A8282
:102680001B82C45AD1409E012C553E4F41E061E867
:1026900075E0CE0101960E94013F8823E9F160E0D8
:1026A00070E0CE0101960E949E3E8823A9F1CB598D
:1026B000DE4F188219821A821B82C556D1409E01B4
:1026C0002B593E4F41E069ED74E0CE0101960E9426
:1026D000013F882309F184E296E00E944B45CE0138
:1026E00001960E945B3E0E944B458981863039F0FD
:1026F0008BE296E00E944B450E944D450DC0CE01F5
:1027000001960E945B3E0E944B45CE0101960E94BD
:10271000C5248111EACFECCFCE0101960E94332867
:102720008823A1F086EF94E00E944B458B89082E08
:10273000000C990B0E9445458FEF94E00E944B4599
:10274000CE0101960E945B3E0E944B450E94B2362C
:102750004B015C019B01A50160E070E080E090E02E
:10276000C859DD4FA880C856D240C759DD4FB88040
:10277000C956D240C659DD4FC880CA56D240C55945
:10278000DD4FD880CB56D240E12CF12C00E010E098
:102790000E94954E0E94205020E030E04AE754E429
:1027A0000E942F4F4B015C01CE0187579E4F0E9424
:1027B000D323882329F0CE0187579E4F0E94C1233F
:1027C00083E395E00E944B45C45ADE4F2881CC55E7
:1027D000D140C35ADE4F3881CD55D140C25ADE4F69
:1027E0004881CE55D140C15ADE4F5881CF55D14096
:1027F000C05ADE4F6881C056D140CF59DE4F788134
:10280000C156D140CE59DE4F8881C256D140CD59F4
:10281000DE4F9881C356D1400E9420506B017C014D
:1028200020E030E04AE754E4C501B4010E942F4F94
:102830009B01AC01C701B6010E942F4F0E945E456B
:102840000E944D450E944D458DE296E00E944B4509
:102850000E944D45CE0101960E94FD33BE016F5F7F
:102860007F4FC1010E940B23CD5ADE4F398228824F
:10287000C355D140CE018A5C9E4F0E9419438FEF11
:10288000CC55DE4F8883C45AD140CB55DE4F888368
:10289000C55AD140CA54DE4F1882C65BD14086E388
:1028A00091E08C0F9D1F4F96C954DE4F998388830A
:1028B000C75BD140C754DE4F188219821A821B822F
:1028C000C95BD1400E94B2364B015C01C12CD12CB6
:1028D0007601C859DD4F6883C856D240C759DD4FCD
:1028E0009882C956D240C659DD4FA882CA56D240F6
:1028F000C559DD4FB882CB56D240C459DD4FC8828E
:10290000CC56D240C359DD4FD882CD56D240C259A1
:10291000DD4FE882CE56D240C159DD4FF882CF5606
:10292000D24000E010E0CE018C559E4F0E94C5249D
:10293000882319F00F5F1F4FF6CF0E94B2362B018C
:102940003C01CE0187579E4F0E94D323882329F054
:10295000CE0187579E4F0E94C12386EB95E00E94CF
:102960004B45C8010E94454586E496E00E944B45D0
:102970000E944D4583E395E00E944B45C45ADE4FCB
:102980002881CC55D140C35ADE4F3881CD55D14036
:10299000C25ADE4F4881CE55D140C15ADE4F5881D0
:1029A000CF55D140C05ADE4F6881C056D140CF5973
:1029B000DE4F7881C156D140CE59DE4F8881C25654
:1029C000D140CD59DE4F9881C356D1400E9420504E
:1029D000C059DD4F688379838A839B83C057D24077
:1029E0009201A30160E070E080E090E0C859DD4F03
:1029F000A880C856D240C759DD4FB880C956D240CA
:102A0000C659DD4FC880CA56D240C559DD4FD8805F
:102A1000CB56D240E12CF12C00E010E00E94954E04
:102A20000E94205020E030E04AE754E40E942F4FFB
:102A300020E030E04AE754E40E942F4F9B01AC01B4
:102A4000C059DD4F688179818A819B81C057D2400E
:102A50000E942F4F0E945E450E944D450E944D45A9
:102A60008DE496E00E944B450E944D45CE010196B3
:102A70000E94FD33BE016F5F7F4FC1010E940B2397
:102A8000CD5ADE4F39822882C355D140CE018A5CAF
:102A90009E4F0E9419438FEFC354DE4F8883CD5B56
:102AA000D140C254DE4F8883CE5BD140C153DE4F4C
:102AB0001882CF5CD14086E391E08C0F9D1F4F962A
:102AC000C053DE4F99838883C05DD140CE52DE4F24
:102AD000188219821A821B82C25DD1400E94B236CE
:102AE0004B015C01C12CD12C7601C859DD4F6883A4
:102AF000C856D240C759DD4F9882C956D240C659F0
:102B0000DD4FA882CA56D240C559DD4FB882CB5698
:102B1000D240C459DD4FC882CC56D240C359DD4F94
:102B2000D882CD56D240C259DD4FE882CE56D2402F
:102B3000C159DD4FF882CF56D240CE0183549E4F0B
:102B40000E9490410E94B2362B013C01C1010E94BB
:102B5000D323882319F0C1010E94C12383E395E0A8
:102B60000E944B45C45ADE4F2881CC55D140C35AF0
:102B7000DE4F3881CD55D140C25ADE4F4881CE5507
:102B8000D140C15ADE4F5881CF55D140C05ADE4F97
:102B90006881C056D140CF59DE4F7881C156D140AF
:102BA000CE59DE4F8881C256D140CD59DE4F988133
:102BB000C356D1400E942050C059DD4F68837983AD
:102BC0008A839B83C057D2409201A30160E070E0EA
:102BD00080E090E0C859DD4FA880C856D240C75960
:102BE000DD4FB880C956D240C659DD4FC880CA569D
:102BF000D240C559DD4FD880CB56D240E12CF12CC4
:102C000000E010E00E94954E0E94205020E030E04D
:102C10004AE754E40E942F4F20E030E04AE754E4B2
:102C20000E942F4F9B01AC01C059DD4F6881798113
:102C30008A819B81C057D2400E942F4F0E945E45DF
:102C40000E944D450E944D4580E796E00E944B450D
:102C50000E944D458E010F5F1F4F2801C8010E9441
:102C6000FD33B801C1010E940B23CD5ADE4F3982DA
:102C70002882C355D140CE018A5C9E4F0E941943E1
:102C80000E94B2364B015C01C12CD12C7601C8598F
:102C9000DD4F6883C856D240C759DD4F9882C95668
:102CA000D240C659DD4FA882CA56D240C559DD4F21
:102CB000B882CB56D240C459DD4FC882CC56D240E0
:102CC000C359DD4FD882CD56D240C259DD4FE8827C
:102CD000CE56D240C159DD4FF882CF56D2400B526A
:102CE0001E4F82E292E0D8018D939C9380E594E19F
:102CF0000E942453F801938382839783868320E57F
:102D000034E135832483892B09F090C41582148221
:102D100086EA96E017C080ED96E00E944B45C858C1
:102D2000DD4F88819981C857D2400E9445458FE088
:102D300095E00E944B45B30180E090E00E944E2355
:102D400080E295E00E944B450E944D45CE018A529B
:102D50009E4F0E94E0080E94B2364B015C019B012D
:102D6000A50160E070E080E090E0C859DD4FA880E8
:102D7000C856D240C759DD4FB880C956D240C6594F
:102D8000DD4FC880CA56D240C559DD4FD880CB56DA
:102D9000D240E12CF12C00E010E00E94954E0E9400
:102DA000205020E030E04AE754E40E942F4F4B01CE
:102DB0005C01CE0187579E4F0E94D323882329F0C0
:102DC000CE0187579E4F0E94C12383E395E00E9466
:102DD0004B45C45ADE4F2881CC55D140C35ADE4FF3
:102DE0003881CD55D140C25ADE4F4881CE55D140B1
:102DF000C15ADE4F5881CF55D140C05ADE4F68814D
:102E0000C056D140CF59DE4F7881C156D140CE59FE
:102E1000DE4F8881C256D140CD59DE4F9881C356CE
:102E2000D1400E9420506B017C0120E030E04AE755
:102E300054E4C501B4010E942F4F9B01AC01C701AE
:102E4000B6010E942F4F0E945E450E944D450E9490
:102E50004D4589ED96E00E944B450E944D45C201CB
:102E60000E94FD33B201C1010E940B23CD5ADE4FF7
:102E700039822882C355D140CE018A5C9E4F0E9480
:102E800019430E94B2364B015C01C12CD12C760152
:102E9000C859DD4F6883C856D240C759DD4F988264
:102EA000C956D240C659DD4FA882CA56D240C5592C
:102EB000DD4FB882CB56D240C459DD4FC882CC56C4
:102EC000D240C359DD4FD882CD56D240C259DD4FD2
:102ED000E882CE56D240C159DD4FF882CF56D2405B
:102EE0008FEF89838A831B8A86E391E08C0F9D1F75
:102EF0004F969D8B8C8B1E8A1F8A188E198E20E010
:102F000030E041E06EEF76E0C2010E94013F88238D
:102F1000B9F085E097E00E944B45C2010E945B3EFC
:102F20000E944B45CE0101960E94C524882309F4D6
:102F300043C48981863009F03FC4CE010196EECFAB
:102F4000C2010E943328882399F086EF94E00E9402
:102F50004B458B89082E000C990B0E9445458FEF3D
:102F600094E00E944B45C2010E945B3E0E944B458B
:102F70000E94B2364B015C019B01A50160E070E04C
:102F800080E090E0C859DD4FA880C856D240C759AC
:102F9000DD4FB880C956D240C659DD4FC880CA56E9
:102FA000D240C559DD4FD880CB56D240E12CF12C10
:102FB00000E010E00E94954E0E94205020E030E09A
:102FC0004AE754E40E942F4F4B015C01CE01875722
:102FD0009E4F0E94D323882329F0CE0187579E4F0E
:102FE0000E94C12383E395E00E944B45C45ADE4F03
:102FF0002881CC55D140C35ADE4F3881CD55D140C0
:10300000C25ADE4F4881CE55D140C15ADE4F588159
:10301000CF55D140C05ADE4F6881C056D140CF59FC
:10302000DE4F7881C156D140CE59DE4F8881C256DD
:10303000D140CD59DE4F9881C356D1400E942050D7
:103040006B017C0120E030E04AE754E4C501B401A3
:103050000E942F4F9B01AC01C701B6010E942F4F68
:103060000E945E450E944D450E944D458FE097E0CD
:103070000E944B450E944D45C2010E94FD33B201A2
:10308000C1010E940B23CD5ADE4F39822882C355DD
:10309000D140CE018A5C9E4F0E9419430E94B236F5
:1030A0004B015C01C12CD12C7601C859DD4F6883DE
:1030B000C856D240C759DD4F9882C956D240C6592A
:1030C000DD4FA882CA56D240C559DD4FB882CB56D3
:1030D000D240C459DD4FC882CC56D240C359DD4FCF
:1030E000D882CD56D240C259DD4FE882CE56D2406A
:1030F000C159DD4FF882CF56D2403E010EEA601A28
:103100000DEF700A82E292E0D3018D939C9380E0F0
:1031100091E00E942453F3019383828397838683F3
:1031200020E031E035832483892B29F41582148231
:1031300087E997E03CC1BE01675B7D4F8FEFDB0104
:103140008C93AE01405C5D4FFA0180837E01F9EC07
:10315000EF1AFDEFFF0AD7018C936E01B2EDCB1A87
:10316000BDEFDB0AF60180831E01FBED2F1AFDEF98
:103170003F0AD1018C93C45EDD4F8883CC51D2408D
:103180009E01265A3D4F8090100290901102A0900F
:103190001202B0901302F90180829182A282B3825E
:1031A000E458F1091382128215821482118210826E
:1031B0007187608713861286178216821786168695
:1031C000118A108A15861486558B448B178A168AA5
:1031D000138A128A4A53510962E070E0DA011196AB
:1031E0007C936E9313963C932E93129715961C9294
:1031F0001E92149717961C921E92169719961C925F
:103200001E9218971B96FC93EE931A978E01005A04
:103210001D4FF801118210825E01F2EAAF1AFDEF34
:10322000BF0A29ED34E0D5012D933C939E01265031
:103230003E4FF9011382128215821482118210828C
:103240009CE1892E92E0992E8C0E9D1E918680869F
:103250001386128617821682BE016E5E7D4F9AE03B
:10326000E4E1F2E0DB0101900D929A95E1F71C8216
:103270001B821E821D821A821982FA86E9861C86AA
:103280001B8618861F82188A1F861A8A198A1E862C
:103290001D86DE8ACD8A188E1F8A1C8A1B8AE1E071
:1032A000F0E0FA8FE98F1C8E1B8E1E8F0D8F18A2F7
:1032B0001F8E1AA219A25CA34BA318A61FA21AA6BE
:1032C00019A61EA21DA23EA62DA618AA1FA61CA6C0
:1032D0001BA6FAABE9ABBCAAABAA1EAA1DAA18AEE4
:1032E0001FAA1AAE19AE3CAF2BAFC051DE4F798387
:1032F0006883C05FD140CE50DE4F19821882C25F12
:10330000D14025E030E0C251DE4F39832883CE5EC4
:10331000D140CA50DE4F19821882C65FD140C850D2
:10332000DE4F59824882C85FD140CC50DE4F1982AF
:103330001882C45FD140CB59DE4F8883C556D14037
:10334000CA59DE4F8883C656D140C958DE4F18820D
:10335000C757D14086E391E08C0F9D1F4F96C85808
:10336000DE4F99838883C857D140C658DE4F1882F4
:1033700019821A821B82CA57D14020E04851510954
:10338000B30140960E94D70A882379F0CE018B5969
:103390009E4F0E94C524811112C2CB59DE4F8881F5
:1033A000C556D1408E3F09F40AC283EC97E00E94D3
:1033B0004B450E944D45C3010E94E0080E94B23671
:1033C0004B015C019B01A50160E070E080E090E0B2
:1033D000C859DD4FA880C856D240C759DD4FB880C4
:1033E000C956D240C659DD4FC880CA56D240C559C9
:1033F000DD4FD880CB56D240E12CF12C00E010E01C
:103400000E94954E0E94205020E030E04AE754E4AC
:103410000E942F4F4B015C01CE0187579E4F0E94A7
:10342000D323882329F0CE0187579E4F0E94C123C2
:1034300083E395E00E944B45C45ADE4F2881CC556A
:10344000D140C35ADE4F3881CD55D140C25ADE4FEC
:103450004881CE55D140C15ADE4F5881CF55D14019
:10346000C05ADE4F6881C056D140CF59DE4F7881B7
:10347000C156D140CE59DE4F8881C256D140CD5978
:10348000DE4F9881C356D1400E9420506B017C01D1
:1034900020E030E04AE754E4C501B4010E942F4F18
:1034A0009B01AC01C701B6010E942F4F0E945E45EF
:1034B0000E944D450E944D45CE018A5C9E4F0E9460
:1034C0009F43CE018B5F9E4F0E945C43C758DD4FE8
:1034D0000FB6F894DEBF0FBECDBFDF91CF911F9125
:1034E0000F91FF90EF90DF90CF90BF90AF909F90A3
:1034F0008F907F906F905F904F903F902F900895A6
:10350000CD5FDE4F88819981C350D140CA59DD4FCC
:10351000A880B980C656D2408A199B096C01E12C5B
:10352000F12C00E010E09801C059DD4F8883C057AE
:10353000D240CF58DD4FD882C157D240CE58DD4F50
:10354000E882C257D240CD58DD4FF882C357D240EF
:10355000CC58DD4F0883C457D240CB58DD4F188379
:10356000C557D240CA58DD4F2883C657D240C958E4
:10357000DD4F3883C757D240930140E050E060E010
:1035800070E080E090E05601C12CD12CE12CF12CB0
:1035900000E010E00E949E4E08F4350123E0E22E88
:1035A000F12CEC0EFD1ECD5FDE4FF982E882C35098
:1035B000D1400FEF401A500A20E0AE0143545E4F55
:1035C000BE016F5F7F4FC4010E94D70A882379F044
:1035D000C4010E94C52481110C94C90FCC55DE4F43
:1035E0008881C45AD1408E3F11F40C94C90F8EEDDE
:1035F00094E00E944B45C2010E94454581EE94E053
:103600000E944B4584EE94E00E944B450E944D453C
:103610000C94BA0FCE0101960E949041882311F4B8
:103620000C94E0100F5F1F4F0C94F1108FEF898303
:103630008A831B8A86E391E08C0F9D1F4F969D8B9A
:103640008C8B1E8A1F8A188E198EC858DD4F1982DE
:103650001882C857D240612C712C942C852C20E004
:1036600030E040E061E875E0892D982D0E94013F2F
:10367000882381F0892D982D0E94C524882351F03C
:10368000892D982D0E9433288111E9CF89818330BB
:10369000E9F4E5CF892D982D0E943328882309F479
:1036A0003ACB86EF94E00E944B458B89082E000CA4
:1036B000990B0E9445458FEF94E00E944B45892D60
:1036C000982D0E945B3E0E944B4540CBC852DE4F76
:1036D000E881F981C85DD140C452DE4F888199816B
:1036E000CC5DD1408E1B9F0B5C01C12CD12CE12CF9
:1036F000F12C8701C059DD4F8883C057D240CF5885
:10370000DD4FB882C157D240CE58DD4FC882C25774
:10371000D240CD58DD4FD882C357D240CC58DD4F70
:10372000E882C457D240CB58DD4FF882C557D2400B
:10373000CA58DD4F0883C657D240C958DD4F188399
:10374000C757D240930140E050E060E070E080E075
:1037500090E0C12CD12CE12CF12C00E010E00E9473
:103760009E4E08F43501C452DE4FF983E883CC5DE8
:10377000D140C858DD4F08811981C857D2400F5F2A
:103780001F4FC858DD4F19830883C857D2401FEF19
:10379000CB59DE4F1883C556D14020E0AE014B59BE
:1037A0005E4FBE016A527E4F892D982D0E94D90529
:1037B000882309F454CF64CF0E944D45D9CB85EDC1
:1037C00097E00E944B45D30116968D919C911797D7
:1037D00012962D913C911397821B930B0E944545A5
:1037E00080E295E0E4CD2F923F924F925F926F92EC
:1037F0007F928F929F92AF92BF92CF92DF92EF9281
:10380000FF920F931F93CF93DF9300D000D0CDB7DB
:10381000DEB74C017E836D830E94F446382E8823E8
:1038200009F4F7C2AD81BE818C918F7090E0893030
:10383000910508F0E4C2FC018827E558FF4F8F4F3F
:103840000C94144EED81FE818081138212821182CC
:103850008F788F7780831086118612861386148660
:103860001586168617861482158216821782C40161
:103870000E94FD46882309F4C2C2F40143805480AB
:1038800065807680FDE24F1651046104710401F5F4
:103890004DE250E060E070E0C4010E940847382E1D
:1038A000882309F4B6C2AD81BE818C9180648C936B
:1038B000C4010E94CC09811105C0F40182818F3FAF
:1038C0000CF4A7C2AD81BE818C91807F816080C2E3
:1038D000B0E34B16510461047104C9F440E350E0B5
:1038E00060E070E0C4010E940847882309F491C297
:1038F000C4010E94CC09882331F0ED81FE818081D2
:10390000807F82603FC2D40112968C9174C0D30133
:10391000C201C197A109B1090997A105B10508F034
:103920006EC2B301A201C4010E940847882309F4B2
:1039300070C2C301B20160537109810991096B0121
:103940007C01FF0CCC08DC2C7601ED81FE816087C8
:10395000718782879387C486C586C686C7860E947C
:10396000E54FAD81BE8114966D937D938D939C93AD
:103970001797F8C1C4010E94FD46882309F43FC28D
:10398000F4014380548065807680F0E34F16510443
:1039900061047104A1F540E350E060E070E0C4010F
:1039A0000E940847882309F434C2AD81BE81149671
:1039B0001D921D921D921C92179718961C92189793
:1039C00019961C9219971A961C921A971B961C927C
:1039D0001B971C961C921C971D961C921D971E9659
:1039E0001C921E971F961C92C4010E94CC09811143
:1039F00084CFF40182818F3F0CF07FCF0AC2D301C4
:103A0000C201C197A109B1090997A105B10508F043
:103A1000F6C1B301A201C4010E940847882309F43A
:103A2000F8C1F0E34F1A510861087108AD81BE81F9
:103A30008C9186FF08C07094609450944094411C0F
:103A4000511C611C711CC301B2010E94E54FED8144
:103A5000FE816483758386839783D301C201BB0F84
:103A6000880B982FDC014086518662867386848796
:103A700085878687878776C1C4010E94FD46882393
:103A8000A1F0F4014381548165817681DB01CA0193
:103A90008F7D85349105A105B10509F4DDC14E3254
:103AA00051056105710509F4B6C1AD81BE818C91E6
:103AB0008F7C80618C93ADC1C4010E94FD46882338
:103AC00009F49DC1F40143815481658176816A01C5
:103AD0007B01F0E3CF1AD108E108F1080AE0C01633
:103AE000D104E104F10408F4D6C189C1C4010E94E3
:103AF000FD468823A1F0F4014381548165817681DC
:103B0000DB01CA018F7D85349105A105B10509F05E
:103B10002FC293C2C4010E94FD46811155C0ED81A0
:103B2000FE8180818F7C80625AC1C4010E94FD4663
:103B3000882309F464C1D40113964D915D916D9170
:103B40007C9116974B3251056105710559F04D3244
:103B500051056105710509F044C1ED81FE81818146
:103B600083608183C4010E940847382E882309F4AA
:103B700050C1C4010E94CC09811106C0D401129623
:103B80008C918F3F0CF445C1ED81FE818081807F57
:103B90008660F8C0C4010E94FD46882309F42FC145
:103BA000F40143815481658176816A017B01F0E3F0
:103BB000CF1AD108E108F1080AE0C016D104E104E7
:103BC000F10408F473C21BC1D40113964D915D91A9
:103BD0006D917C9116976A017B01B0E3CB1AD108F5
:103BE000E108F108EAE0CE16D104E104F10408F49A
:103BF0005DC295CFC4010E94FD46882309F4EAC046
:103C0000D40113964D915D916D917C911697DB01D6
:103C1000CA018F7D85349105A105B10509F473C2F0
:103C20002A013B0110E3411A5108610871088AE03A
:103C3000481651046104710408F0A6C0C4010E9432
:103C40000847382E882309F4E4C0ED81FE81808185
:103C5000F82FF0742F2E86FF08C070946094509453
:103C60004094411C511C611C711C8AE0A82EB12C8F
:103C7000C12CD12CE12CF12C00E010E0AD81BE81F3
:103C800018962C91189719963C9119971A964C9161
:103C90001A971B965C911B971C966C911C971D960E
:103CA0007C911D971E968C911E971F969C910E9449
:103CB000274E5201630183017201110FEE08FE2CA1
:103CC0008701E982FA820B831C83E980FE2C0E2D8A
:103CD0001E2D0E94804EAD81BE8118962C931897A0
:103CE00019963C9319971A964C931A971B965C93C6
:103CF0001B971C966C931C971D967C931D971E9684
:103D00008C931E971F969C93A0E00E94A74E0CF0E8
:103D100007C2222009F40CC220E030E040E251E466
:103D2000AD81BE8114966D917D918D919C91179777
:103D30000E941C5120E030E040E05FE30E94C34E4F
:103D40000E945E506B017C01C301B2010E94E54FED
:103D5000A70196010E94C34EED81FE8164837583A5
:103D600086839783C4010E94CC09811106C0D401C7
:103D700012968C918F3F0CF44CC0ED81FE818081B6
:103D8000807F88608083E0C14E32510561057105F6
:103D900009F54EE250E060E070E0C4010E9408477F
:103DA000382E8823B1F1AD81BE8111968C91119787
:103DB0008C5F8C7F816011968C93C4010E94CC092A
:103DC000882309F4BBC1AD81BE818C91807F836063
:103DD0008C93BAC1ED81FE8180818F7C806180836C
:103DE00018C06A017B01F0E3CF1AD108E108F1089D
:103DF0000AE0C016D104E104F10408F425C1D4019D
:103E000013964D915D916D917C911697C4010E941E
:103E10000847312C99C14EE250E060E070E0C401E7
:103E20000E940847382E8823A1F3ED81FE8181810D
:103E30008C5F8C7F81608183C4010E94CC098111D9
:103E400005C0D40112968C918F3F1CF3ED81FE8149
:103E50008081807F836096CFC4010E9408478823B9
:103E6000C1F2AD81BE8111968C9111978C7F8260D9
:103E700011968C93C4010E94CC09882331F0ED8106
:103E8000FE818081807F85607DCFD40112968C91E8
:103E90008F3FACF7BECFC4010E940847882309F4C6
:103EA000B8CFAD81BE8111967C901197172D1695D4
:103EB0001695612F70E06F33710509F448C0260133
:103EC00037018C9186FF08C07094609450944094A0
:103ED000411C511C611C711C719561957109072E63
:103EE000000C880B990B0E94E54F9B01AC0160E030
:103EF00070E080E291E40E9489516B017C01C30172
:103F0000B2010E94E54FA70196010E941C519B013E
:103F1000AC01ED81FE8164817581868197810E946B
:103F2000C34EAD81BE8114966D937D938D939C930A
:103F3000179777247394710E872D880F880F119629
:103F40009C9111979370792E782A11967C92C401D6
:103F50000E94CC09882331F0ED81FE818081807F31
:103F6000846010CFD40112968C918F3FACF751CF63
:103F70006A017B01B0E3CB1AD108E108F108EAE05D
:103F8000CE16D104E104F10408F0C9CDC4010E94A9
:103F90000847882309F43DCFED81FE817180172DFC
:103FA00016951695612F70E06F33710581F2260129
:103FB0003701808186FF08C07094609450944094CB
:103FC000411C511C611C711C719561957109072E72
:103FD000000C880B990B0E94E54F9B01AC0160E03F
:103FE00070E080E291E40E9489516B017C01C30181
:103FF000B2010E94E54FA70196010E941C519B014E
:10400000AC01AD81BE8114966D917D918D919C9195
:1040100017970E94C34EED81FE816483758386836A
:10402000978377247394710E872D880F880F918161
:104030009370792E782A71828ACFC4010E94084732
:10404000882309F4E6CE16CFC4010E9408478823CE
:1040500009F4DFCEAD81BE8112962D913C9113976C
:104060002A39B9E13B0728F0ED81FE818081806823
:1040700080834AE0429FC001439F900D11248C0D24
:104080009D1DAD81BE8113969C938E931297C401A2
:104090000E94CC09882331F0ED81FE818081807FF0
:1040A000876070CED40112968C912AC0C4010E9400
:1040B0000847882309F4ADCEAD81BE8112962D91BB
:1040C0003C9113972A39B9E13B0728F0ED81FE8135
:1040D0008081806880834AE0429FC001439F900DA9
:1040E00011248C0D9D1DAD81BE8113969C938E93E2
:1040F0001297C4010E94CC098111CECFF4018281B4
:104100008F3F54F686CEC4010E940847882309F4E5
:1041100080CEED81FE8181818C7F82608183AACEF9
:10412000A0E00E94A74E09F4F7CD222009F4F4CDB7
:10413000ED81FE81808180688083EECDF4018281F3
:104140008F3F0CF040CE65CE832D26960FB6F894A7
:10415000DEBF0FBECDBFDF91CF911F910F91FF90BA
:10416000EF90DF90CF90BF90AF909F908F907F9017
:104170006F905F904F903F902F900895FF920F9314
:104180001F93CF93DF93EC018B01FB0180818F7034
:1041900090E08E30910508F010C2FC018827EC57A2
:1041A000FF4F8F4F0C94144ECE010E94FD46882382
:1041B00009F403C28B819C81AD81BE818E3691054D
:1041C000A105B105C9F44EE650E060E070E0CE0113
:1041D0000E940847F82E882309F4F6C1CE010E94F8
:1041E000CC09811104C08A818F3F0CF4EDC1F80124
:1041F0008081807F8160E5C084379105A105B1058C
:10420000C9F444E750E060E070E0CE010E94084746
:10421000F82E882309F4D8C1CE010E94CC0981115F
:1042200004C08A818F3F0CF4CFC1F8018081807F68
:104230008560C7C086369105A105B10509F0BDC1ED
:1042400046E650E060E070E0CE010E940847F82E9C
:10425000882309F4B9C1CE010E94CC09811104C0A0
:104260008A818F3F0CF4B0C1F8018081807F896022
:10427000A8C0CE010E94FD46882309F49EC18B810F
:104280009C81AD81BE8185379105A105B10509F0FD
:1042900094C145E750E060E070E0CE010E9408471D
:1042A000F82E882309F490C1CE010E94CC09811117
:1042B00004C08A818F3F0CF487C1F8018081807F20
:1042C00082607FC0CE010E94FD46882309F475C13B
:1042D0008B819C81AD81BE818C369105A105B10594
:1042E00009F06BC14CE650E060E070E0CE010E9446
:1042F0000847F82E882309F467C1CE010E94CC0933
:10430000811104C08A818F3F0CF45EC1F801808165
:10431000807F836056C0CE010E94FD46882309F449
:104320004CC18B819C81AD81BE818C369105A105EC
:10433000B10509F042C14CE650E060E070E0CE010A
:104340000E940847F82E882309F43EC1CE010E943E
:10435000CC09811104C08A818F3F0CF435C1F8016A
:104360008081807F84602DC0FB0180818F7C806193
:1043700022C1CE010E94FD46882309F41EC18B8113
:104380009C81AD81BE8182379105A105B10509F0FF
:1043900014C142E750E060E070E0CE010E9408479F
:1043A000F82E882309F410C1CE010E94CC09811196
:1043B00004C08A818F3F0CF407C1F8018081807F9F
:1043C0008660808302C1CE010E94FD46882309F4E5
:1043D000F4C08B819C81AD81BE8185379105A1059B
:1043E000B10509F0EAC045E750E060E070E0CE01B9
:1043F0000E940847F82E882309F4E6C0CE010E94E7
:10440000CC09811104C08A818F3F0CF4DDC0F80112
:104410008081807F8760D5CFCE010E94FD468823B2
:1044200009F4CBC08B819C81AD81BE81853691051D
:10443000A105B10509F0C1C045E650E060E070E0BB
:10444000CE010E940847F82E882309F4BDC0CE0192
:104450000E94CC09811104C08A818F3F0CF4B4C042
:10446000F8018081807F8860ACCFFB0180818F7CE8
:104470008062A1C0CE010E94FD46882309F49DC040
:104480008B819C81AD81BE8181369105A105B105ED
:1044900009F093C041E650E060E070E0CE010E9478
:1044A0000847F82E882309F48FC0CE010E94CC095A
:1044B000811104C08A818F3F0CF486C0F80180818D
:1044C000807F8A607ECFCE010E94FD46882309F45A
:1044D00074C08B819C81AD81BE818C369105A10514
:1044E000B10509F06AC04CE650E060E070E0CE0132
:1044F0000E940847F82E882309F466C0CE010E9466
:10450000CC09811104C08A818F3F0CF45DC0F80191
:104510008081807F8B6055CFCE010E94FD4688232D
:1045200009F44BC08B819C81AD81BE81833791059D
:10453000A105B10509F041C043E750E060E070E03B
:10454000CE010E940847F82E8823F1F1CE010E9487
:10455000CC09811103C08A818F3FB4F1F8018081B9
:10456000807F8C602ECFCE010E94FD46882329F1EA
:104570008B819C81AD81BE8185369105A105B105F8
:10458000E1F445E650E060E070E0CE010E940847AB
:10459000F82E8823C9F0CE010E94CC09811103C0F6
:1045A0008A818F3F8CF0F8018081807F8D6009CFF8
:1045B000FB0180818063808307C04B815C816D81BA
:1045C0007E81CE010E940847F12C8F2DDF91CF9183
:1045D0001F910F91FF9008951F93CF93DF93FB01DD
:1045E00012811F3FA4F41C3F51F01D3F81F4EC01E8
:1045F00044E455E06EE00E948C05188308C046E351
:1046000055E068E0DF91CF911F910C948C05DF910C
:10461000CF911F910895CF93DF93FB0122813381C6
:10462000DC0113963C932E93129744815581668149
:10463000778114964D935D936D937C931797408586
:1046400051856285738518964D935D936D937C9328
:104650001B971C96EF012C969C01275E3F4F4991BA
:104660004D93A217B307D9F7218D328DFC01328FFC
:10467000218FDF91CF910895009769F0FC0101909F
:104680000020E9F73197AF01481B590BBC0181EBC2
:104690009AE00C945D3C80E090E008958F929F92A8
:1046A000AF92BF92CF92DF92EF92FF920F931F9340
:1046B000CF93DF93CDB7DEB7A1970FB6F894DEBFE7
:1046C0000FBECDBF6B017C0197FF2BC06DE281EB6C
:1046D0009AE00E94C43C8C0122273327A9012C199F
:1046E0003D094E095F0919A2CE0181967C019AE02D
:1046F000892E912CA12CB12CCA01B901A5019401DC
:104700000E94F24D605DF70162937F012115310532
:104710004105510589F7CF010E943C23800F911F6D
:104720001DC09B01AC0119A28E010F5D1F4F8AE0D5
:10473000C82ED12CE12CF12CCA01B901A701960198
:104740000E94F24D605DF80162938F0121153105E1
:104750004105510589F7CF010E943C23A1960FB670
:10476000F894DEBF0FBECDBFDF91CF911F910F91A7
:10477000FF90EF90DF90CF90BF90AF909F908F9081
:104780000895CF93DF93EC01898D9A8D009741F0C6
:104790000E94BA30898D9A8D0E94BC531A8E198E50
:1047A000DF91CF910895DC015996ED91FC915A97D4
:1047B000309721F081E09581911101C080E008954A
:1047C000EF92FF920F931F93CF93DF93EC017B0146
:1047D0008A011B821A8288EE93E0A0E0B0E08C830D
:1047E0009D83AE83BF8388E392E0998388838DE1C4
:1047F00090E00E9424539A8F898F009779F02DE1E1
:10480000F701DC0101900D922A95E1F74CE050E0B0
:10481000B801CE010C960E947254188EDF91CF9190
:104820001F910F91FF90EF9008954F925F926F92BA
:104830007F92AF92BF92CF92DF92EF92FF920F934F
:104840001F93CF93DF9300D01F92CDB7DEB78C01BB
:1048500049835A836B837C835901C12CD12C760107
:10486000412C82E0582E612C712C49815A816B8138
:104870007C819E012F5F3F4FC8010E94F72D882346
:1048800051F1D301C201F801058404C0880F991FBA
:10489000AA1FBB1F0A94D2F7C80ED91EEA1EFB1E20
:1048A00049815A816B817C818789803129F088EF29
:1048B0009FEFAFEFBFE004C088EF9FEFA0E0B0E054
:1048C000481759076A077B0780F2F501C082D18239
:1048D000E282F38281E00F900F900F900F90DF91B2
:1048E000CF911F910F91FF90EF90DF90CF90BF90ED
:1048F000AF907F906F905F904F9008951F93CF93EC
:10490000DF93EC010E9483058B899C89FC01438124
:10491000548165817681423251056105710549F006
:104920004EE257E063E0CE010E948C058DEF888354
:1049300024C00E94CC09182F8B899C89112339F03F
:104940000E944449182F8B899C89111109C0FC01D0
:1049500022812F3F2CF7BC01CE010E94EC2210C017
:104960000E94234981110BC06B897C89FB018281E4
:104970008F3F2CF4CE010E94EC2210E001C018827F
:10498000812FDF91CF911F9108957F928F929F92F7
:10499000AF92BF92CF92DF92EF92FF920F931F934D
:1049A000CF93DF9300D01F92CDB7DEB78C01DC012F
:1049B00053968D919C9154970E94F446F82E811144
:1049C00009C0F80163897489DB0112968C918F3FCD
:1049D000ACF43DC0D8018C918D3F09F430C38F3FBA
:1049E00079F05396CD90DC905497C6010E94FD4615
:1049F000811106C0F60182818C3F11F08EEF4AC210
:104A0000C8010E948305D801EC918E2FEE0F990BFF
:104A1000AA0BBB0BFC013396EB30F10508F0CCC1BF
:104A20008827EE56FF4F8F4F0C94144EF801158ACD
:104A3000168A178A108E838994890E942349F82E3A
:104A400081117EC1D80153966D917C915497C80114
:104A50000E94EC22F5C2F801818184304CF482304E
:104A60000CF043C0882309F48DC0813029F0ECC0DC
:104A7000843009F487C0E8C083899489DC01ED9112
:104A8000FC910484F585E02D1995F80182818073ED
:104A9000803171F487E081C141E0BE016F5F7F4FDB
:104AA000F801838994890E94AA47882309F488C160
:104AB000F80183899489DC01ED91FC910084F185F2
:104AC000E02D19956C01F80183899489DC01ED9141
:104AD000FC910284F385E02D1995C81AD90AB4E037
:104AE000CB16D10408F46CC1D7CF83899489DC013B
:104AF000ED91FC910484F585E02D19956801B2E0F3
:104B0000CB0ED11CB601F801838994890E94F31B56
:104B10008111F8CFD80153968D919C915497FC0147
:104B200022812C3F11F486E038C12F3F0CF44CC099
:104B30000E942349F801C2808C2D807309F4B9C109
:104B40000388F489E02D82818F3F0CF4B2C1838108
:104B50009481A581B68189839A83AB83BC83AC01A0
:104B6000BD014F7D4D3551056105710509F4ABC19E
:104B70008C97A105B10509F4A6C182818F3F09F088
:104B800098C1A1C1F80183899489DC01ED91FC9160
:104B90000484F585E02D19956801B2E0CB0ED11C97
:104BA000B601F801838994890E94BE208111F8CF53
:104BB000D80153968D919C915497FC0122812C3FF2
:104BC00009F4B1CF2F3F44F4BC01C8010E94EC228C
:104BD000C8010E94040E33C20E94234981110AC0F9
:104BE000D80153966D917C915497FB0182818F3F40
:104BF0000CF4CEC0D80112968C911297807309F4F0
:104C000058C15396ED91FC91549782818F3F0CF4DB
:104C100050C183819481A581B68189839A83AB83B6
:104C2000BC83AC01BD014F7D4D355105610571055A
:104C300009F430CF8C97A105B10509F42BCF8281FF
:104C40008F3F09F036C126CF4BE655E06FE0C80133
:104C50000E948C05F8011082D80153968D919C9189
:104C600054970E94CC09F80163897489882309F458
:104C7000DDC1FB0183819481A581B68189839A83FB
:104C8000AB83BC836C017D01E894C5F8FDE5CF16CC
:104C9000D104E104F10409F4C9C18C97A105B1055F
:104CA000D9F6C4C1F80183899489DC0113964D912A
:104CB0005D916D917C9116974232510561057105A8
:104CC00079F14D3751056105710509F0B8C1458984
:104CD00056896789708D4150510961097109458B69
:104CE000568B678B708F0E94CC09D80153966D91BB
:104CF0007C915497811105C0FB0182818F3F0CF498
:104D000047C0CB010E942349811106C0D8015396A8
:104D10006D917C9154973CC085E0F801808390C1EF
:104D200061E0C8010E947037882309F488C1D80166
:104D30008C91813009F484C149E755E060E1BFC03E
:104D400060E0C8010E94703735C0F80183899489FA
:104D5000DC0113964D915D916D917C9116974D35C7
:104D6000510561057105E1F40E94CC09F8016389E0
:104D70007489811105C0DB0112968C918F3F44F03C
:104D8000CB010E942349811107C0F801638974890E
:104D9000C8010E94EC2253C183E0D8018C9350C11A
:104DA00060E0C8010E94703781114AC148C1C80142
:104DB0000E94963AF82E44C14EEA55E067E07FC063
:104DC000F80183899489DC01ED91FC910084F185DF
:104DD000E02D19956C01F80183899489DC01ED912E
:104DE000FC910284F385E02D1995C81AD90AB4E024
:104DF000CB16D10408F424C1D80153968D919C910F
:104E00005497FC0122812F3F2CF42C3F09F418C148
:104E1000BC01BECF43815481658176814232510508
:104E20006105710521F04EE257E063E048C00E9441
:104E3000CC09F80163897489811106C0DB011296DF
:104E40008C918F3F0CF4A4CFF80182818F7C80611C
:104E50008283CB010E942349D8015396CD90DC90E8
:104E60005497811102C0B60193CFC6010E94FD463E
:104E7000882399F0F60183819481A581B681CA9730
:104E8000A105B10551F449E755E060E1C8010E9470
:104E90008C058DEFF8018083D2C0D601ED91FC9195
:104EA0000284F385E02DC6011995892B09F4F2CD12
:104EB000C7C0C8010E94040E4BE655E06FE0C80170
:104EC0000E948C05BCC087E0F8018083D380FD2D53
:104ED000F370EF2E8F2F90E002970CF496C0D8015C
:104EE00014966D917C91159780E090E00E94E34FBD
:104EF0009B01AC0160E070E080E291E40E94895186
:104F00004B015C01B3E09B01AC01EB1237C0F8012F
:104F100066817781808591850E942F4FD8011696F2
:104F20006D937D938D939C9319971A962C911A9754
:104F30001B963C911B971C964C911C971D965C915F
:104F40001D971E966C911E971F967C911F975096E9
:104F50008C91509751969C910E94DD4FA501940130
:104F60000E942F4F0E94A14FF80122873387448768
:104F7000558766877787808B918B47C0D8011696B7
:104F80006D917D918D919C9119970E941C51F80112
:104F9000668377838087918722853385448555850D
:104FA00066857785808991890E94DD4FA5019401EE
:104FB0000E941C510E94A14FD8011A962C931A9757
:104FC0001B963C931B971C964C931C971D965C93C9
:104FD0001D971E966C931E971F967C931F97509655
:104FE0008C93509751969C93A0E00E94A74E1CF47E
:104FF000C6FE07C00AC0A0E00E94A74E31F0C6FE60
:1050000004C0F8018281806882838D2D837029F429
:10501000D80112968C9187FF04C082E0F801818349
:105020000FC083E0D80111968C930AC0DB01129661
:105030008C918F3F24F48DEFD8018C93A9CEF12C65
:105040008F2D0F900F900F900F90DF91CF911F91A8
:105050000F91FF90EF90DF90CF90BF90AF909F9017
:105060008F907F900895FC0180818D3F31F081E029
:105070009289911103C080E0089581E00895EF9234
:10508000FF921F93CF93DF93EC017B010E94830576
:1050900068E378E08B899C890E94B345882309F4F2
:1050A0009FC08B899C89FC014381548165817681F5
:1050B0004D3551056105710509F46AC064F4423249
:1050C00051056105710591F04B355105610571057B
:1050D00009F447C0DDCF4B3751056105710561F01B
:1050E0004D37510561057105C1F0D2CFCE010E9447
:1050F0007E248111CDCF74C00E94CC09182F882343
:1051000089F08D899E89AF89B88D0196A11DB11D49
:105110008D8B9E8BAF8BB88F37C00E94CC09182F18
:10512000811110C06B897C89FB0182818F3F0CF457
:105130004AC047E057E061E0CE010E948C058DEF48
:1051400088834EC08D899E89AF89B88D0197A1094A
:10515000B1098D8B9E8BAF8BB88FF1E0EF1AF10800
:1051600097CF0E94CC09182F81110EC06B897C89C2
:10517000FB0182818F3F3CF144EF56E062E0CE01BB
:105180000E948C058DEF2AC0FFEFEF1AFF0A80CF37
:105190000E94CC09182F8B899C89111106C0FC0133
:1051A00022812F3F14F4BC010EC0F1E0EF1AF10888
:1051B0001E141F040CF46CCF0E942349182F6B8916
:1051C0007C89811104C0CE010E94EC220AC0FB013F
:1051D00082818F3F11F083E001C08EEF888301C090
:1051E00010E0812FDF91CF911F91FF90EF900895F4
:1051F000EF92FF921F93CF93DF93EC017B010E940C
:10520000830568E378E08B899C890E94B3458823F5
:1052100009F496C08D35D9F144F4823271F08B35A2
:1052200081F7FFEFEF1AFF0A35C0EB89FC898B3756
:1052300051F08D3709F445C0E4CFCE010E947E24A1
:105240008111DFCF86C08D899E89AF89B88D019687
:10525000A11DB11D8D8B9E8BAF8BB88F8FEFE81A80
:10526000F80ACF010E94CC09182F8111CACF6B898F
:105270007C89FB0182818F3F0CF45EC047E057E0E0
:1052800061E0CE010E948C058DEF888363C0F1E060
:10529000EF1AF1088B899C890E94CC09182F811183
:1052A000B0CF6B897C89FB0182818F3F0CF444C0B5
:1052B00044EF56E062E0CE010E948C058DEF8883BA
:1052C00048C081E0E81AF1088D899E89AF89B88DC0
:1052D0000197A109B1098D8B9E8BAF8BB88F1E14DE
:1052E0001F04ECF082818F3F11F085E001C08EEF4A
:1052F0008883CF010E94CC09182F8B899C891111BA
:1053000006C0FC0122812F3F14F4BC0115C00E948D
:105310002349182F81111EC06B897C890DC0CF01D4
:105320000E94CC09182F81116CCF6B897C89FB01FD
:1053300082818F3F0CF065CFCE010E94EC220AC023
:105340006B897C89FB0182818F3F1CF4CE010E9416
:10535000EC2210E0812FDF91CF911F91FF90EF9011
:105360000895EF92FF920F931F93CF93DF93EC0179
:105370000B891C89C8010E94FD46882309F49DC041
:10538000F80183819481A581B6818B359105A105B2
:10539000B10531F08B379105A105B10559F15DC01B
:1053A000C8010E94CC09182F8B899C89111104C057
:1053B000FC0122812F3F54F10E942349182F6B8951
:1053C0007C89811104C0FB0182818F3F04F1FB01C4
:1053D00082818F3F21F444EF56E062E02EC061E00D
:1053E00070E0CE01DF91CF911F910F91FF90EF9070
:1053F0000C943F28C8010E94CC09182F8B899C89E6
:10540000111109C0FC0122812F3F2CF4BC01CE01F7
:105410000E94EC2253C00E942349182F6B897C897B
:10542000811104C0FB0182818F3F8CF3FB018281DB
:105430008F3F41F447E057E061E0CE010E948C05C8
:105440008DEF37C061E070E0CE01DF91CF911F9109
:105450000F91FF90EF900C94F828CE010E948305E5
:10546000EB88FC88C7010E94FD46182F882329F18C
:10547000F70183819481A581B6818297A105B10549
:1054800031F4CE010E947E24811118C016C06EE353
:1054900078E0C7010E94B34581110DC06B897C89FA
:1054A000FB0182818F3F24F4CE010E94EC2205C0D3
:1054B0008EEF888302C0188201C010E0812FDF9137
:1054C000CF911F910F91FF90EF9008950F931F932D
:1054D000CF93DF93EC010B891C89C8010E94FD4624
:1054E000811102C011E02FC0F80183819481A58150
:1054F000B6818C97A105B105A9F7C8010E94CC0916
:10550000182F8B899C89111106C0FC0122812F3F25
:1055100014F4BC0107C00E942349182F6B897C89B1
:10552000811104C0CE010E94EC220DC0FB018281DA
:105530008F3FC1F64EE455E064E0CE010E948C0539
:105540008DEF888310E0812FDF91CF911F910F9114
:105550000895FC01918D228D892F90E0805C9F4FF2
:10556000821B91098F739927089580E090E0892B21
:1055700021F00E94BA3C811125C080E090E0892B87
:1055800041F080E090E0892B21F00E940000811121
:105590001CC080E090E0892B41F080E090E0892BF6
:1055A00021F00E940000811113C080E090E0892B5F
:1055B000A1F080E090E0892B81F00E940000811131
:1055C0000AC008950E940000D8CF0E940000E1CFD9
:1055D0000E940000EACF0C94000008950F931F93DF
:1055E000CF93DF93EB010E94D7368B010E94D1430A
:1055F0008F3F49F00E94D736601B710B6C177D07F7
:10560000A8F380E001C081E0DF91CF911F910F915D
:105610000895FC01848DDF01A80FB11DA35ABF4F6F
:105620002C91848D90E001968F739927848FA689A1
:10563000B7892C93A089B1898C91837080648C93F5
:10564000938D848D981306C00288F389E02D8081A4
:105650008F7D808308958FB7F89480917E088FBFE7
:105660000895CF93DF93EC0180917F08811109C0E9
:1056700081E080937F0880914E0B90914F0B0E94A8
:10568000D44360E08C81DF91CF910C94343661E09B
:10569000FC0184810E94343680917F088111109230
:1056A0007F080895CF93DF93EC018E81882389F0E2
:1056B0008F8198859C012F5F3F4F38872F838230E1
:1056C000924018F40E94D143F3CFCE010E94472BA1
:1056D0001E82DF91CF9108958F929F92AF92BF92D9
:1056E000FF920F931F93CF93DF93EC01F62E4901A6
:1056F0005A010E94522BCE010E94312B6CE271E0C4
:10570000CE010E94EE2A8F2D80640E94CA4308E1D8
:1057100010E0D501C401002E04C0B695A795979559
:1057200087950A94D2F70E94CA4308501109083F8E
:105730008FEF180771F7FF2029F088E0F81204C0F6
:1057400087E803C085E901C08FEF0E94CA4310E0DB
:105750000E94D1438A8787FF04C01F3F11F01F5F5B
:10576000F7CFDF91CF911F910F91FF90BF90AF9036
:105770009F908F900895AF92BF92CF92DF92EF9259
:10578000FF920F931F93CF93DF93EC016901C80140
:10579000820F931F8130924008F070C08E81882361
:1057A00071F088819981AA81BB8184179507A6072A
:1057B000B70729F48F819885C816D906B0F54883B4
:1057C00059836A837B838B85833039F089E0440F6A
:1057D000551F661F771F8A95D1F79A01AB0161E1CA
:1057E000CE010E946C2B882319F083E08D8346C084
:1057F0000E94D7365B010E94D1438A878F3F49F4CC
:105800000E94D7366A197B096D327140A0F38FE090
:1058100003C08E3F31F08DE08D83CE010E94472B77
:105820002DC018861F8281E08E838F8198858C150C
:105830009D0540F40E94D1438F81988501969887F9
:105840008F83F3CF6701E00EF11EEC14FD0431F0FD
:105850000E94D143F60181936F01F7CF8F81988524
:10586000080F191F18870F838985882319F00115E0
:10587000124048F0CE010E94522B05C0CE010E947A
:10588000472B80E001C081E0DF91CF911F910F9104
:10589000FF90EF90DF90CF90BF90AF900895CF92A0
:1058A000DF92EF92FF920F93CF93DF93EC016901A8
:1058B000411551056105710511F482E13EC08B85EA
:1058C000833039F089E0440F551F661F771F8A9592
:1058D000D1F79A01AB0168E1CE010E946C2B8823BD
:1058E00011F084E02AC08EEF0E94CA4376018EEF49
:1058F000D81AF70181917F010E94CA43CE14DF04B8
:10590000C1F78FEF0E94CA438FEF0E94CA430E94E3
:10591000D1438A878F71853031F081E18D83CE014B
:105920000E94472B0BC00023D9F068E572E0CE013E
:105930000E94EE2A811107C085E18D83CE010E946D
:10594000472B80E014C020E030E0A9016DE0CE01DB
:105950000E946C2B811109C00E94D143811105C0A6
:10596000CE010E94472B81E002C084E1E6CFDF91A7
:10597000CF910F91FF90EF90DF90CF9008950F930C
:10598000409180085091810860918208709183084D
:10599000411551056105710599F0082F2FE838E090
:1059A00080918C0890918D080E944F2C882349F09B
:1059B0001092800810928108109282081092830839
:1059C00081E00F9108950F93CF9390918E089923C2
:1059D000F9F0C82F4091000250910102609102023B
:1059E00070910302082F2FE838E080918C08909185
:1059F0008D080E944F2C811102C080E00AC0CC2388
:105A000039F08C2F0E94BF2C8823B9F310928E0896
:105A100081E0CF910F9108958F929F92AF92BF92A4
:105A2000EF92FF920F931F93CF934B015C01C42F12
:105A30008091000290910102A0910202B0910302B4
:105A400088159905AA05BB0509F181E00E94E32CA0
:105A5000811102C080E020C08FE8E82E88E0F82E97
:105A600000E012E020E030E0B501A40180918C0854
:105A700090918D080E94BB2B882361F380920002D5
:105A800090920102A0920202B092030280918E08CD
:105A9000C82BC0938E0881E0CF911F910F91FF908A
:105AA000EF90BF90AF909F908F9008954F925F922C
:105AB0006F927F928F929F92AF92BF92CF92DF921E
:105AC000EF92FF920F931F93CF93DF93EC0142303D
:105AD00051056105710510F480E078C089859A85CB
